{
  "contractName": "StockOracle",
  "abi": [
    {
      "constant": false,
      "inputs": [
        {
          "internalType": "bytes4",
          "name": "symbol",
          "type": "bytes4"
        },
        {
          "internalType": "uint256",
          "name": "_price",
          "type": "uint256"
        },
        {
          "internalType": "uint256",
          "name": "_volume",
          "type": "uint256"
        }
      ],
      "name": "setStock",
      "outputs": [],
      "payable": false,
      "stateMutability": "nonpayable",
      "type": "function"
    },
    {
      "constant": true,
      "inputs": [
        {
          "internalType": "bytes4",
          "name": "symbol",
          "type": "bytes4"
        }
      ],
      "name": "getStockPrice",
      "outputs": [
        {
          "internalType": "uint256",
          "name": "",
          "type": "uint256"
        }
      ],
      "payable": false,
      "stateMutability": "view",
      "type": "function"
    },
    {
      "constant": true,
      "inputs": [
        {
          "internalType": "bytes4",
          "name": "symbol",
          "type": "bytes4"
        }
      ],
      "name": "getStockVolume",
      "outputs": [
        {
          "internalType": "uint256",
          "name": "",
          "type": "uint256"
        }
      ],
      "payable": false,
      "stateMutability": "view",
      "type": "function"
    }
  ],
  "bytecode": "0x608060405234801561001057600080fd5b5061030d806100206000396000f3fe608060405234801561001057600080fd5b50600436106100415760003560e01c80630b1dc17c146100465780638604e3db146100a7578063945aaa4414610108575b600080fd5b6100916004803603602081101561005c57600080fd5b8101908080357bffffffffffffffffffffffffffffffffffffffffffffffffffffffff19169060200190929190505050610169565b6040518082815260200191505060405180910390f35b6100f2600480360360208110156100bd57600080fd5b8101908080357bffffffffffffffffffffffffffffffffffffffffffffffffffffffff191690602001909291905050506101c6565b6040518082815260200191505060405180910390f35b6101676004803603606081101561011e57600080fd5b8101908080357bffffffffffffffffffffffffffffffffffffffffffffffffffffffff191690602001909291908035906020019092919080359060200190929190505050610223565b005b6000806000837bffffffffffffffffffffffffffffffffffffffffffffffffffffffff19167bffffffffffffffffffffffffffffffffffffffffffffffffffffffff19168152602001908152602001600020600101549050919050565b6000806000837bffffffffffffffffffffffffffffffffffffffffffffffffffffffff19167bffffffffffffffffffffffffffffffffffffffffffffffffffffffff19168152602001908152602001600020600001549050919050565b81600080857bffffffffffffffffffffffffffffffffffffffffffffffffffffffff19167bffffffffffffffffffffffffffffffffffffffffffffffffffffffff191681526020019081526020016000206000018190555080600080857bffffffffffffffffffffffffffffffffffffffffffffffffffffffff19167bffffffffffffffffffffffffffffffffffffffffffffffffffffffff191681526020019081526020016000206001018190555050505056fea265627a7a723158205102f26eb7b15f557054f3ef539aeb92fac3e88563f8d84337edfd872d86dc5d64736f6c63430005100032",
  "source": "pragma solidity >=0.5.16 <0.7.0;\r\n///quote structure \r\n\r\ncontract StockOracle{\r\n\r\n    struct stock {\r\n        uint price;\r\n        uint volume;\r\n    }\r\n    \r\n    // quotes by symbol\r\n    mapping (bytes4 => stock) stockQuote;\r\n        // Contract owner\r\n    address oracleOwner;\r\n    \r\n    // Set the value of a stock \r\n    function setStock (bytes4 symbol, uint _price, uint _volume) public {\r\n        \r\n        stockQuote[symbol].price = _price;\r\n        stockQuote[symbol].volume = _volume;\r\n        \r\n        // // Alternative Method // //\r\n    //   stock memory newStock;\r\n    //   newStock.price = _price;\r\n    //   newStock.volume = _volume;\r\n    //   stockQuote[symbol] = newStock;\r\n        \r\n    }\r\n    \r\n    // Get the value of the stock\r\n    function getStockPrice (bytes4 symbol) public view returns (uint) {\r\n        return stockQuote[symbol].price;\r\n    }\r\n    \r\n    // Get the value of volume traded for a stock\r\n    function getStockVolume (bytes4 symbol) public view returns (uint) {\r\n        return stockQuote[symbol].volume;\r\n    }\r\n\r\n}",
  "sourcePath": "C:\\Users\\zakar\\Desktop\\Blockchain Development\\Semester 2\\Design Patterns\\Ethereum-Oracle-with-Smart-Contract\\Contract\\contracts\\StockOracle.sol",
  "compiler": {
    "name": "solc",
    "version": "0.5.16+commit.9c3226ce.Emscripten.clang"
  },
  "schemaVersion": "3.2.0",
  "updatedAt": "2020-06-16T00:19:30.561Z",
  "networkType": "ethereum",
  "devdoc": {
    "methods": {}
  },
  "userdoc": {
    "methods": {},
    "notice": "quote structure "
  }
}